{
  "contractName": "Betting",
  "abi": [
    {
      "constant": true,
      "inputs": [
        {
          "name": "",
          "type": "uint256"
        }
      ],
      "name": "games",
      "outputs": [
        {
          "name": "game_id",
          "type": "uint256"
        },
        {
          "name": "TeamA",
          "type": "string"
        },
        {
          "name": "TeamB",
          "type": "string"
        },
        {
          "name": "status",
          "type": "bool"
        }
      ],
      "payable": false,
      "stateMutability": "view",
      "type": "function"
    },
    {
      "constant": true,
      "inputs": [
        {
          "name": "",
          "type": "address"
        }
      ],
      "name": "playerInfor",
      "outputs": [
        {
          "name": "amountBet",
          "type": "uint256"
        },
        {
          "name": "teamSelect",
          "type": "uint8"
        }
      ],
      "payable": false,
      "stateMutability": "view",
      "type": "function"
    },
    {
      "constant": true,
      "inputs": [],
      "name": "totalBetOne",
      "outputs": [
        {
          "name": "",
          "type": "uint256"
        }
      ],
      "payable": false,
      "stateMutability": "view",
      "type": "function"
    },
    {
      "constant": true,
      "inputs": [],
      "name": "owner",
      "outputs": [
        {
          "name": "",
          "type": "address"
        }
      ],
      "payable": false,
      "stateMutability": "view",
      "type": "function"
    },
    {
      "constant": true,
      "inputs": [],
      "name": "mininumBet",
      "outputs": [
        {
          "name": "",
          "type": "uint256"
        }
      ],
      "payable": false,
      "stateMutability": "view",
      "type": "function"
    },
    {
      "constant": true,
      "inputs": [],
      "name": "totalBetTwo",
      "outputs": [
        {
          "name": "",
          "type": "uint256"
        }
      ],
      "payable": false,
      "stateMutability": "view",
      "type": "function"
    },
    {
      "constant": true,
      "inputs": [
        {
          "name": "",
          "type": "uint256"
        }
      ],
      "name": "players",
      "outputs": [
        {
          "name": "",
          "type": "address"
        }
      ],
      "payable": false,
      "stateMutability": "view",
      "type": "function"
    },
    {
      "constant": true,
      "inputs": [],
      "name": "count_game",
      "outputs": [
        {
          "name": "",
          "type": "uint256"
        }
      ],
      "payable": false,
      "stateMutability": "view",
      "type": "function"
    },
    {
      "inputs": [],
      "payable": false,
      "stateMutability": "nonpayable",
      "type": "constructor"
    },
    {
      "constant": true,
      "inputs": [],
      "name": "getAdmin",
      "outputs": [
        {
          "name": "",
          "type": "address"
        }
      ],
      "payable": false,
      "stateMutability": "view",
      "type": "function"
    },
    {
      "constant": true,
      "inputs": [],
      "name": "getCountGame",
      "outputs": [
        {
          "name": "count",
          "type": "uint256"
        }
      ],
      "payable": false,
      "stateMutability": "view",
      "type": "function"
    },
    {
      "constant": false,
      "inputs": [
        {
          "name": "_TeamA",
          "type": "string"
        },
        {
          "name": "_TeamB",
          "type": "string"
        }
      ],
      "name": "addGame",
      "outputs": [],
      "payable": false,
      "stateMutability": "nonpayable",
      "type": "function"
    },
    {
      "constant": true,
      "inputs": [],
      "name": "getGame",
      "outputs": [
        {
          "name": "",
          "type": "string"
        },
        {
          "name": "",
          "type": "string"
        }
      ],
      "payable": false,
      "stateMutability": "view",
      "type": "function"
    },
    {
      "constant": true,
      "inputs": [
        {
          "name": "player",
          "type": "address"
        }
      ],
      "name": "checkPlayerExist",
      "outputs": [
        {
          "name": "",
          "type": "bool"
        }
      ],
      "payable": false,
      "stateMutability": "view",
      "type": "function"
    },
    {
      "constant": false,
      "inputs": [
        {
          "name": "_teamSelect",
          "type": "uint8"
        },
        {
          "name": "_address",
          "type": "address"
        },
        {
          "name": "_value",
          "type": "uint256"
        }
      ],
      "name": "bet",
      "outputs": [],
      "payable": true,
      "stateMutability": "payable",
      "type": "function"
    },
    {
      "constant": false,
      "inputs": [
        {
          "name": "teamWinner",
          "type": "uint8"
        }
      ],
      "name": "distributePrizes",
      "outputs": [],
      "payable": false,
      "stateMutability": "nonpayable",
      "type": "function"
    }
  ],
  "bytecode": "0x6080604052600060055534801561001557600080fd5b50336000806101000a81548173ffffffffffffffffffffffffffffffffffffffff021916908373ffffffffffffffffffffffffffffffffffffffff160217905550655af3107a400060018190555061120e806100726000396000f3006080604052600436106100db576000357c0100000000000000000000000000000000000000000000000000000000900463ffffffff168063117a5b90146100e057806328a57981146102045780632fdc8160146102685780634494fd9f1461029357806349a53dd21461038f57806361edf9b2146103ea5780636e9960c31461041a5780637863117e146104715780638da5cb5b1461049c57806395827c61146104f3578063a09dc95214610540578063c2b5a5041461056b578063d8c6235614610596578063f71d96cb14610645578063fac14fae146106b2575b600080fd5b3480156100ec57600080fd5b5061010b600480360381019080803590602001909291905050506106dd565b60405180858152602001806020018060200184151515158152602001838103835286818151815260200191508051906020019080838360005b8381101561015f578082015181840152602081019050610144565b50505050905090810190601f16801561018c5780820380516001836020036101000a031916815260200191505b50838103825285818151815260200191508051906020019080838360005b838110156101c55780820151818401526020810190506101aa565b50505050905090810190601f1680156101f25780820380516001836020036101000a031916815260200191505b50965050505050505060405180910390f35b34801561021057600080fd5b50610245600480360381019080803573ffffffffffffffffffffffffffffffffffffffff16906020019092919050505061084a565b604051808381526020018260ff1660ff1681526020019250505060405180910390f35b34801561027457600080fd5b5061027d61087b565b6040518082815260200191505060405180910390f35b34801561029f57600080fd5b506102a8610885565b604051808060200180602001838103835285818151815260200191508051906020019080838360005b838110156102ec5780820151818401526020810190506102d1565b50505050905090810190601f1680156103195780820380516001836020036101000a031916815260200191505b50838103825284818151815260200191508051906020019080838360005b83811015610352578082015181840152602081019050610337565b50505050905090810190601f16801561037f5780820380516001836020036101000a031916815260200191505b5094505050505060405180910390f35b34801561039b57600080fd5b506103d0600480360381019080803573ffffffffffffffffffffffffffffffffffffffff1690602001909291905050506109f8565b604051808215151515815260200191505060405180910390f35b3480156103f657600080fd5b50610418600480360381019080803560ff169060200190929190505050610a9b565b005b34801561042657600080fd5b5061042f610e3f565b604051808273ffffffffffffffffffffffffffffffffffffffff1673ffffffffffffffffffffffffffffffffffffffff16815260200191505060405180910390f35b34801561047d57600080fd5b50610486610e68565b6040518082815260200191505060405180910390f35b3480156104a857600080fd5b506104b1610e6e565b604051808273ffffffffffffffffffffffffffffffffffffffff1673ffffffffffffffffffffffffffffffffffffffff16815260200191505060405180910390f35b61053e600480360381019080803560ff169060200190929190803573ffffffffffffffffffffffffffffffffffffffff16906020019092919080359060200190929190505050610e93565b005b34801561054c57600080fd5b50610555610fe3565b6040518082815260200191505060405180910390f35b34801561057757600080fd5b50610580610fe9565b6040518082815260200191505060405180910390f35b3480156105a257600080fd5b50610643600480360381019080803590602001908201803590602001908080601f0160208091040260200160405190810160405280939291908181526020018383808284378201915050505050509192919290803590602001908201803590602001908080601f0160208091040260200160405190810160405280939291908181526020018383808284378201915050505050509192919290505050610fef565b005b34801561065157600080fd5b50610670600480360381019080803590602001909291905050506110a8565b604051808273ffffffffffffffffffffffffffffffffffffffff1673ffffffffffffffffffffffffffffffffffffffff16815260200191505060405180910390f35b3480156106be57600080fd5b506106c76110e6565b6040518082815260200191505060405180910390f35b6007602052806000526040600020600091509050806000015490806001018054600181600116156101000203166002900480601f01602080910402602001604051908101604052809291908181526020018280546001816001161561010002031660029004801561078f5780601f106107645761010080835404028352916020019161078f565b820191906000526020600020905b81548152906001019060200180831161077257829003601f168201915b505050505090806002018054600181600116156101000203166002900480601f01602080910402602001604051908101604052809291908181526020018280546001816001161561010002031660029004801561082d5780601f106108025761010080835404028352916020019161082d565b820191906000526020600020905b81548152906001019060200180831161081057829003601f168201915b5050505050908060030160009054906101000a900460ff16905084565b60066020528060005260406000206000915090508060000154908060010160009054906101000a900460ff16905082565b6000600554905090565b606080600760006005548152602001908152602001600020600101600760006005548152602001908152602001600020600201818054600181600116156101000203166002900480601f01602080910402602001604051908101604052809291908181526020018280546001816001161561010002031660029004801561094d5780601f106109225761010080835404028352916020019161094d565b820191906000526020600020905b81548152906001019060200180831161093057829003601f168201915b50505050509150808054600181600116156101000203166002900480601f0160208091040260200160405190810160405280929190818152602001828054600181600116156101000203166002900480156109e95780601f106109be576101008083540402835291602001916109e9565b820191906000526020600020905b8154815290600101906020018083116109cc57829003601f168201915b50505050509050915091509091565b600080600090505b600480549050811015610a90578273ffffffffffffffffffffffffffffffffffffffff16600482815481101515610a3357fe5b9060005260206000200160009054906101000a900473ffffffffffffffffffffffffffffffffffffffff1673ffffffffffffffffffffffffffffffffffffffff161415610a835760019150610a95565b8080600101915050610a00565b600091505b50919050565b610aa36110ec565b60008060008060008060008096506000955060009450600093505b600480549050841015610bf7578860ff1660066000600487815481101515610ae257fe5b9060005260206000200160009054906101000a900473ffffffffffffffffffffffffffffffffffffffff1673ffffffffffffffffffffffffffffffffffffffff1673ffffffffffffffffffffffffffffffffffffffff16815260200190815260200160002060010160009054906101000a900460ff1660ff161415610bea57600484815481101515610b7057fe5b9060005260206000200160009054906101000a900473ffffffffffffffffffffffffffffffffffffffff1688886103e881101515610baa57fe5b602002019073ffffffffffffffffffffffffffffffffffffffff16908173ffffffffffffffffffffffffffffffffffffffff168152505086806001019750505b8380600101945050610abe565b60018960ff161415610c125760035495506002549450610c1d565b600254955060035494505b600092505b8683111515610d5657600073ffffffffffffffffffffffffffffffffffffffff1688846103e881101515610c5257fe5b602002015173ffffffffffffffffffffffffffffffffffffffff16141515610d49576006600089856103e881101515610c8757fe5b602002015173ffffffffffffffffffffffffffffffffffffffff1673ffffffffffffffffffffffffffffffffffffffff16815260200190815260200160002060000154915087836103e881101515610cdb57fe5b602002015173ffffffffffffffffffffffffffffffffffffffff166108fc612710876127108a02811515610d0b57fe5b04612710018502811515610d1b57fe5b049081150290604051600060405180830381858888f19350505050158015610d47573d6000803e3d6000fd5b505b8280600101935050610c22565b600090505b600480549050811015610e0c5760066000600483815481101515610d7b57fe5b9060005260206000200160009054906101000a900473ffffffffffffffffffffffffffffffffffffffff1673ffffffffffffffffffffffffffffffffffffffff1673ffffffffffffffffffffffffffffffffffffffff1681526020019081526020016000206000808201600090556001820160006101000a81549060ff021916905550508080600101915050610d5b565b6000600481610e1b9190611111565b50600095506000945060006002819055506000600381905550505050505050505050565b60008060009054906101000a900473ffffffffffffffffffffffffffffffffffffffff16905090565b60025481565b6000809054906101000a900473ffffffffffffffffffffffffffffffffffffffff1681565b6001548110151515610ea457600080fd5b80600660008473ffffffffffffffffffffffffffffffffffffffff1673ffffffffffffffffffffffffffffffffffffffff1681526020019081526020016000206000018190555082600660008473ffffffffffffffffffffffffffffffffffffffff1673ffffffffffffffffffffffffffffffffffffffff16815260200190815260200160002060010160006101000a81548160ff021916908360ff16021790555060048290806001815401808255809150509060018203906000526020600020016000909192909190916101000a81548173ffffffffffffffffffffffffffffffffffffffff021916908373ffffffffffffffffffffffffffffffffffffffff1602179055505060018360ff161415610fcd5780600260008282540192505081905550610fde565b806003600082825401925050819055505b505050565b60015481565b60035481565b60056000815480929190600101919050555060806040519081016040528060055481526020018381526020018281526020016000151581525060076000600554815260200190815260200160002060008201518160000155602082015181600101908051906020019061106392919061113d565b50604082015181600201908051906020019061108092919061113d565b5060608201518160030160006101000a81548160ff0219169083151502179055509050505050565b6004818154811015156110b757fe5b906000526020600020016000915054906101000a900473ffffffffffffffffffffffffffffffffffffffff1681565b60055481565b617d00604051908101604052806103e890602082028038833980820191505090505090565b8154818355818111156111385781836000526020600020918201910161113791906111bd565b5b505050565b828054600181600116156101000203166002900490600052602060002090601f016020900481019282601f1061117e57805160ff19168380011785556111ac565b828001600101855582156111ac579182015b828111156111ab578251825591602001919060010190611190565b5b5090506111b991906111bd565b5090565b6111df91905b808211156111db5760008160009055506001016111c3565b5090565b905600a165627a7a723058201734ba9f00c492f4f947581520f6a8ceeb514f3df513098923c8de2968c513470029",
  "source": "pragma solidity ^0.4.23;\n\ncontract Betting{\n    address public owner;\n    uint256 public mininumBet;\n    uint256 public totalBetOne;\n    uint256 public totalBetTwo;\n    address[] public players;\n\n    struct player {\n        uint256 amountBet;\n        uint8 teamSelect;\n\n    }\n\n    struct game{\n        uint game_id;\n        string  TeamA;\n        string  TeamB;\n        bool status;\n\n    }\n\n    // function () public payable{}\n    uint public  count_game = 0;\n\n    mapping (address => player) public playerInfor;\n    mapping (uint => game) public games;\n\n    constructor() public {\n        owner = msg.sender;\n        mininumBet = 100000000000000;\n    }\n\n\n     \n\n    function getAdmin() public view returns(address){\n\n            return owner;\n    }\n\n    function getCountGame() constant returns(uint count){\n        return count_game;\n    }\n    function addGame(string memory _TeamA, string memory _TeamB) public{\n        count_game ++;\n\n        games[count_game] = game(count_game,_TeamA,_TeamB,false);\n        \n    }\n\n    function getGame() public view returns(string,string){\n        return (games[count_game].TeamA,games[count_game].TeamB);\n    }\n\n  \n    // return \n    function checkPlayerExist(address player) public constant returns(bool) {\n        for (uint i=0; i< players.length; i++){\n            if (players[i] == player){\n                return true;\n            }\n\n        }\n        return false;\n\n    }\n\n\n    function bet(uint8 _teamSelect,address _address,uint256 _value) public payable {\n\n        \n        require(_value >= mininumBet);\n\n        playerInfor[_address].amountBet = _value;\n        playerInfor[_address].teamSelect = _teamSelect;\n        players.push(_address);\n\n\n        if (_teamSelect ==1){\n            totalBetOne += _value;\n        }\n        else {\n            totalBetTwo += _value;\n        }\n\n\n    }\n\n\n    function distributePrizes(uint8 teamWinner) public  {\n        address[1000] memory winners;\n        uint256 count = 0;\n        uint256 loseBet = 0;\n        uint256 winBet = 0;\n\n        for (uint i =0; i< players.length; i++){\n            if (playerInfor[players[i]].teamSelect == teamWinner ){\n\n                winners[count]= players[i];\n                count ++;\n            }\n\n        }\n\n\n        if (teamWinner == 1){\n            loseBet = totalBetTwo;\n            winBet = totalBetOne;\n        }\n        else {\n            loseBet = totalBetOne;\n            winBet = totalBetTwo;\n\n        }\n\n        for (uint j=0; j<= count; j++){\n            if (winners[j] != address(0)){\n                uint256 bet = playerInfor[winners[j]].amountBet;\n                address(uint160(winners[j])).transfer((bet*(10000+(loseBet*10000/winBet)))/10000);\n            }\n        }\n\n        for (uint k=0; k<players.length; k++){\n            delete playerInfor[players[k]];\n        }\n\n        players.length =0;\n        loseBet =0;\n        winBet =0; \n        totalBetOne = 0;\n        totalBetTwo = 0;\n\n    }\n\n\n\n}\n",
  "sourcePath": "C:/Users/admin/Desktop/VoteSoccer/contracts/Betting.sol",
  "compiler": {
    "name": "solc",
    "version": "0.4.23+commit.124ca40d.Emscripten.clang"
  },
  "schemaVersion": "3.0.11",
  "updatedAt": "2019-07-04T10:09:36.221Z",
  "devdoc": {
    "methods": {}
  },
  "userdoc": {
    "methods": {}
  }
}