{
  "contractName": "PlaySoccer",
  "abi": [
    {
      "constant": true,
      "inputs": [],
      "name": "tuan",
      "outputs": [
        {
          "name": "",
          "type": "string"
        }
      ],
      "payable": false,
      "stateMutability": "view",
      "type": "function"
    },
    {
      "constant": true,
      "inputs": [
        {
          "name": "",
          "type": "bytes32"
        },
        {
          "name": "",
          "type": "address"
        }
      ],
      "name": "bets",
      "outputs": [
        {
          "name": "",
          "type": "uint256"
        }
      ],
      "payable": false,
      "stateMutability": "view",
      "type": "function"
    },
    {
      "constant": true,
      "inputs": [
        {
          "name": "",
          "type": "uint256"
        }
      ],
      "name": "betters",
      "outputs": [
        {
          "name": "",
          "type": "address"
        }
      ],
      "payable": false,
      "stateMutability": "view",
      "type": "function"
    },
    {
      "constant": true,
      "inputs": [
        {
          "name": "",
          "type": "uint256"
        }
      ],
      "name": "candidateList",
      "outputs": [
        {
          "name": "",
          "type": "bytes32"
        }
      ],
      "payable": false,
      "stateMutability": "view",
      "type": "function"
    },
    {
      "inputs": [],
      "payable": false,
      "stateMutability": "nonpayable",
      "type": "constructor"
    },
    {
      "anonymous": false,
      "inputs": [
        {
          "indexed": false,
          "name": "_name",
          "type": "bytes32[]"
        }
      ],
      "name": "Print",
      "type": "event"
    },
    {
      "constant": true,
      "inputs": [],
      "name": "getCandidateList",
      "outputs": [
        {
          "name": "",
          "type": "bytes32[]"
        }
      ],
      "payable": false,
      "stateMutability": "view",
      "type": "function"
    },
    {
      "constant": true,
      "inputs": [],
      "name": "getOwner",
      "outputs": [
        {
          "name": "",
          "type": "address"
        }
      ],
      "payable": false,
      "stateMutability": "view",
      "type": "function"
    },
    {
      "constant": true,
      "inputs": [],
      "name": "getCount",
      "outputs": [
        {
          "name": "",
          "type": "uint256"
        }
      ],
      "payable": false,
      "stateMutability": "view",
      "type": "function"
    },
    {
      "constant": true,
      "inputs": [],
      "name": "getBalance",
      "outputs": [
        {
          "name": "",
          "type": "uint256"
        }
      ],
      "payable": false,
      "stateMutability": "view",
      "type": "function"
    },
    {
      "constant": false,
      "inputs": [
        {
          "name": "candidate",
          "type": "bytes32"
        }
      ],
      "name": "addCandidate",
      "outputs": [
        {
          "name": "",
          "type": "bool"
        }
      ],
      "payable": false,
      "stateMutability": "nonpayable",
      "type": "function"
    },
    {
      "constant": false,
      "inputs": [
        {
          "name": "selectedwinner",
          "type": "bytes32"
        }
      ],
      "name": "addWinner",
      "outputs": [
        {
          "name": "",
          "type": "bool"
        }
      ],
      "payable": false,
      "stateMutability": "nonpayable",
      "type": "function"
    },
    {
      "constant": false,
      "inputs": [],
      "name": "beginVotingPeriod",
      "outputs": [
        {
          "name": "",
          "type": "bool"
        }
      ],
      "payable": false,
      "stateMutability": "nonpayable",
      "type": "function"
    },
    {
      "constant": false,
      "inputs": [
        {
          "name": "candidate",
          "type": "bytes32"
        }
      ],
      "name": "betOnCandidate",
      "outputs": [],
      "payable": true,
      "stateMutability": "payable",
      "type": "function"
    },
    {
      "constant": true,
      "inputs": [
        {
          "name": "candidate",
          "type": "bytes32"
        }
      ],
      "name": "validCandidate",
      "outputs": [
        {
          "name": "",
          "type": "bool"
        }
      ],
      "payable": false,
      "stateMutability": "view",
      "type": "function"
    },
    {
      "constant": true,
      "inputs": [],
      "name": "getWinner",
      "outputs": [
        {
          "name": "",
          "type": "uint256"
        }
      ],
      "payable": false,
      "stateMutability": "view",
      "type": "function"
    },
    {
      "constant": false,
      "inputs": [],
      "name": "closeVoting",
      "outputs": [
        {
          "name": "",
          "type": "bool"
        }
      ],
      "payable": false,
      "stateMutability": "nonpayable",
      "type": "function"
    }
  ],
  "bytecode": "0x60806040526000600160146101000a81548160ff0219169083151502179055506040805190810160405280600781526020017f61686968696869000000000000000000000000000000000000000000000000008152506002908051906020019061006a9291906100c6565b5034801561007757600080fd5b5033600160006101000a81548173ffffffffffffffffffffffffffffffffffffffff021916908373ffffffffffffffffffffffffffffffffffffffff160217905550600060048190555061016b565b828054600181600116156101000203166002900490600052602060002090601f016020900481019282601f1061010757805160ff1916838001178555610135565b82800160010185558215610135579182015b82811115610134578251825591602001919060010190610119565b5b5090506101429190610146565b5090565b61016891905b8082111561016457600081600090555060010161014c565b5090565b90565b610ebc8061017a6000396000f3006080604052600436106100db576000357c0100000000000000000000000000000000000000000000000000000000900463ffffffff16806312065fe0146100e0578063230d6ed81461010b578063300ea10814610154578063392e6678146101e457806376b38d0e1461022d578063893d20e81461025c5780638e7ea5b2146102b35780638f6e689b146102de5780639fda5d6214610343578063a87d942c146103b0578063b13c744b146103db578063bc193b5514610424578063c631b2921461046d578063ed40c6831461049c578063fdbc4006146104c0575b600080fd5b3480156100ec57600080fd5b506100f561052c565b6040518082815260200191505060405180910390f35b34801561011757600080fd5b5061013a600480360381019080803560001916906020019092919050505061054b565b604051808215151515815260200191505060405180910390f35b34801561016057600080fd5b506101696105f5565b6040518080602001828103825283818151815260200191508051906020019080838360005b838110156101a957808201518184015260208101905061018e565b50505050905090810190601f1680156101d65780820380516001836020036101000a031916815260200191505b509250505060405180910390f35b3480156101f057600080fd5b506102136004803603810190808035600019169060200190929190505050610693565b604051808215151515815260200191505060405180910390f35b34801561023957600080fd5b506102426106f2565b604051808215151515815260200191505060405180910390f35b34801561026857600080fd5b50610271610771565b604051808273ffffffffffffffffffffffffffffffffffffffff1673ffffffffffffffffffffffffffffffffffffffff16815260200191505060405180910390f35b3480156102bf57600080fd5b506102c861079b565b6040518082815260200191505060405180910390f35b3480156102ea57600080fd5b5061032d6004803603810190808035600019169060200190929190803573ffffffffffffffffffffffffffffffffffffffff169060200190929190505050610851565b6040518082815260200191505060405180910390f35b34801561034f57600080fd5b5061036e60048036038101908080359060200190929190505050610876565b604051808273ffffffffffffffffffffffffffffffffffffffff1673ffffffffffffffffffffffffffffffffffffffff16815260200191505060405180910390f35b3480156103bc57600080fd5b506103c56108b4565b6040518082815260200191505060405180910390f35b3480156103e757600080fd5b50610406600480360381019080803590602001909291905050506108c1565b60405180826000191660001916815260200191505060405180910390f35b34801561043057600080fd5b5061045360048036038101908080356000191690602001909291905050506108e4565b604051808215151515815260200191505060405180910390f35b34801561047957600080fd5b50610482610956565b604051808215151515815260200191505060405180910390f35b6104be6004803603810190808035600019169060200190929190505050610d20565b005b3480156104cc57600080fd5b506104d5610e34565b6040518080602001828103825283818151815260200191508051906020019060200280838360005b838110156105185780820151818401526020810190506104fd565b505050509050019250505060405180910390f35b60003073ffffffffffffffffffffffffffffffffffffffff1631905090565b6000600160009054906101000a900473ffffffffffffffffffffffffffffffffffffffff1673ffffffffffffffffffffffffffffffffffffffff163373ffffffffffffffffffffffffffffffffffffffff161415156105a957600080fd5b6006829080600181540180825580915050906001820390600052602060002001600090919290919091509060001916905550600160046000828254019250508190555060019050919050565b60028054600181600116156101000203166002900480601f01602080910402602001604051908101604052809291908181526020018280546001816001161561010002031660029004801561068b5780601f106106605761010080835404028352916020019161068b565b820191906000526020600020905b81548152906001019060200180831161066e57829003601f168201915b505050505081565b600080600090505b6006805490508110156106e75782600019166006828154811015156106bc57fe5b90600052602060002001546000191614156106da57600191506106ec565b808060010191505061069b565b600091505b50919050565b6000600160009054906101000a900473ffffffffffffffffffffffffffffffffffffffff1673ffffffffffffffffffffffffffffffffffffffff163373ffffffffffffffffffffffffffffffffffffffff1614151561075057600080fd5b60018060146101000a81548160ff0219169083151502179055506001905090565b6000600160009054906101000a900473ffffffffffffffffffffffffffffffffffffffff16905090565b60008060045414156107ac5761084e565b60045460014303406040516020018082600019166000191681526020019150506040516020818303038152906040526040518082805190602001908083835b60208310151561081057805182526020820191506020810190506020830392506107eb565b6001836020036101000a03801982511681845116808217855250505050505090500191505060405180910390206001900481151561084a57fe5b0690505b90565b6000602052816000526040600020602052806000526040600020600091509150505481565b60078181548110151561088557fe5b906000526020600020016000915054906101000a900473ffffffffffffffffffffffffffffffffffffffff1681565b6000600680549050905090565b6006818154811015156108d057fe5b906000526020600020016000915090505481565b6000600160009054906101000a900473ffffffffffffffffffffffffffffffffffffffff1673ffffffffffffffffffffffffffffffffffffffff163373ffffffffffffffffffffffffffffffffffffffff1614151561094257600080fd5b816003816000191690555060019050919050565b60008060606000806000806000600160009054906101000a900473ffffffffffffffffffffffffffffffffffffffff1673ffffffffffffffffffffffffffffffffffffffff163373ffffffffffffffffffffffffffffffffffffffff161415156109bf57600080fd5b600160149054906101000a900460ff1615156109da57600080fd5b60066109e461079b565b8154811015156109f057fe5b90600052602060002001549650600094506000935060009250600091505b600780549050821015610bee57600080600089600019166000191681526020019081526020016000206000600785815481101515610a4857fe5b9060005260206000200160009054906101000a900473ffffffffffffffffffffffffffffffffffffffff1673ffffffffffffffffffffffffffffffffffffffff1673ffffffffffffffffffffffffffffffffffffffff168152602001908152602001600020541115610b4357600782815481101515610ac357fe5b9060005260206000200160009054906101000a900473ffffffffffffffffffffffffffffffffffffffff168686806001019750815181101515610b0257fe5b9060200190602002019073ffffffffffffffffffffffffffffffffffffffff16908173ffffffffffffffffffffffffffffffffffffffff1681525050610be1565b60008088600019166000191681526020019081526020016000206000600784815481101515610b6e57fe5b9060005260206000200160009054906101000a900473ffffffffffffffffffffffffffffffffffffffff1673ffffffffffffffffffffffffffffffffffffffff1673ffffffffffffffffffffffffffffffffffffffff168152602001908152602001600020548301925083806001019450505b8180600101925050610a0e565b600a60098402811515610bfd57fe5b0490508381811515610c0b57fe5b049050600091505b8551821015610cf7578582815181101515610c2a57fe5b9060200190602002015173ffffffffffffffffffffffffffffffffffffffff166108fc6000808a6000191660001916815260200190815260200160002060008986815181101515610c7757fe5b9060200190602002015173ffffffffffffffffffffffffffffffffffffffff1673ffffffffffffffffffffffffffffffffffffffff1681526020019081526020016000205483019081150290604051600060405180830381858888f19350505050158015610ce9573d6000803e3d6000fd5b508180600101925050610c13565b6000600160146101000a81548160ff021916908315150217905550600197505050505050505090565b600160149054906101000a900460ff161515610d3b57600080fd5b670de0b6b3a76400003410151515610d5257600080fd5b610d5b81610693565b1515610d6657600080fd5b60073390806001815401808255809150509060018203906000526020600020016000909192909190916101000a81548173ffffffffffffffffffffffffffffffffffffffff021916908373ffffffffffffffffffffffffffffffffffffffff1602179055505034600080836000191660001916815260200190815260200160002060003373ffffffffffffffffffffffffffffffffffffffff1673ffffffffffffffffffffffffffffffffffffffff1681526020019081526020016000206000828254019250508190555050565b60606006805480602002602001604051908101604052809291908181526020018280548015610e8657602002820191906000526020600020905b81546000191681526020019060010190808311610e6e575b50505050509050905600a165627a7a72305820863226b77808d055c9849fa6e88ec5e27b7d1a03e48d04dc68ca0150396ed6960029",
  "source": "pragma solidity ^0.4.23;\r\n\r\ncontract PlaySoccer{\r\n\t\t\r\n\tmapping (bytes32 => mapping (address => uint256)) public bets;\r\n\r\n\t// địa chỉ admin\r\n\taddress owner;\r\n\r\n\t// xác định xem thowfii gian đặt cược có hoạt động\r\n\tbool bettingActive = false;\r\n\r\n\tstring public tuan = \"ahihihi\";\r\n\r\n\tbytes32 winner;\r\n    uint256 numCandidates;\r\n    uint256 numvoters;\r\n\r\n    // tất cả candidate sẽ được lưu trong 1 mảng string\r\n    bytes32[] public candidateList;\r\n\r\n    // lưu tất cả địa chỉ của của clieint tham gia\r\n    address[] public betters;\r\n\r\n\r\n    event Print(bytes32[] _name);\r\n\r\n    modifier onlyOwner() {\r\n        require(msg.sender == owner);\r\n        _;\r\n    }\r\n\r\n    // khởi tạo \r\n    constructor() public {\r\n        owner = msg.sender;\r\n        numCandidates = 0;\r\n    }\r\n\r\n    //get all thông tin của các candidate\r\n    function getCandidateList() public constant returns (bytes32[]) {\r\n        return candidateList;\r\n    }\r\n    // get address của admin sở hữu contract này\r\n    function getOwner() public constant returns (address) {\r\n        return owner;\r\n    }\r\n    // Hàm lấy về số candidate\r\n    function getCount() public constant returns (uint256) {\r\n        return candidateList.length;\r\n    }\r\n    //Returns the total balance involved in bets\r\n    function getBalance() public constant returns (uint256) {\r\n        return address(this).balance;\r\n    }\r\n\r\n    // thêm 1 candidate\r\n    function addCandidate(bytes32 candidate) onlyOwner public returns (bool) {\r\n        candidateList.push(candidate);\r\n        numCandidates += 1;\r\n        return true;\r\n    }\r\n    // nhập đội chiến thằng chỉ có thể gọi bởi admiin\r\n    function addWinner(bytes32 selectedwinner) onlyOwner public returns (bool) {\r\n        winner = selectedwinner;\r\n        return true;\r\n    }\r\n\r\n    // Bắt đầu cá cược\r\n    function beginVotingPeriod() onlyOwner public returns(bool) {\r\n        bettingActive = true;\r\n        return true;\r\n    }\r\n\r\n    //Tăng số vote cho mỗi cadidate\r\n    function betOnCandidate(bytes32 candidate) public payable  {\r\n        require(bettingActive);\r\n        require(msg.value >= 1 ether);\r\n        require(validCandidate(candidate));\r\n        betters.push(msg.sender);\r\n        bets[candidate][msg.sender] += msg.value;\r\n    }\r\n\r\n    //Kiểm tra xem candidate có hợp lệ k\r\n    function validCandidate(bytes32 candidate) view public returns (bool) {\r\n        for(uint i = 0; i < candidateList.length; i++) {\r\n            if (candidateList[i] == candidate) {\r\n                return true;\r\n            }\r\n        }\r\n        return false;\r\n    }\r\n    // Triển khai chọn ngẫu nhiên người chiến thắng\r\n    function getWinner() view public returns (uint256) {\r\n        if (numCandidates == 0) return;\r\n        return (uint256(keccak256(abi.encodePacked(blockhash(block.number - 1)))) % numCandidates);\r\n    }\r\n\r\n    // Đóng chức năng vote và chia tiền\r\n    function closeVoting() onlyOwner public returns (bool) {\r\n        require(bettingActive);\r\n        bytes32 winningCandidate = candidateList[getWinner()];\r\n\r\n        // getting list of winners and losers\r\n        // and the money lost by all losers\r\n        address[] memory winners;\r\n        uint256 numWinners = 0;\r\n        uint256 numLosers = 0;\r\n        uint256 surplus = 0;\r\n        for (uint x = 0; x < betters.length; x++) {\r\n            if (bets[winningCandidate][betters[x]] > 0) {\r\n                winners[numWinners++] = betters[x];\r\n            } else {\r\n                surplus += bets[winningCandidate][betters[x]];\r\n                numLosers++;\r\n            }\r\n        }\r\n\r\n        // keeping 10% as service fee and distribute rest among the winners\r\n        uint256 prize = surplus * 9 / 10;\r\n        // calculate prize per winner\r\n        prize = prize / numLosers;\r\n        // distribute the prize to the winners alongwith the money they bet in\r\n        for (x = 0; x < winners.length; x++) {\r\n            winners[x].transfer(prize + bets[winningCandidate][winners[x]]);\r\n        }\r\n        // Close the betting period\r\n        bettingActive = false;\r\n        return true;\r\n    }\r\n}",
  "sourcePath": "C:/Users/admin/Desktop/VoteSoccer/contracts/PlaySoccer.sol",
  "compiler": {
    "name": "solc",
    "version": "0.4.23+commit.124ca40d.Emscripten.clang"
  },
  "schemaVersion": "3.0.11",
  "updatedAt": "2019-07-04T10:09:36.542Z",
  "devdoc": {
    "methods": {}
  },
  "userdoc": {
    "methods": {}
  }
}